:020000040000FA
:020000001028C6
:08000800B3000308B4000A086C
:10001000B50035088A0034088300B30E330E09009A
:1000200083128701AA01AB0107309900831685016D
:10003000C0308700803099008E1821288E148312DA
:10004000A00183123430B1002008003A031944287B
:10005000013A03194628033A03194A28013A0319B9
:100060004E28073A03195228013A03195628033A31
:1000700003195A28013A03195E280F3A0319622816
:10008000013A031966281F28A00AB228A00A6A208C
:1000900090204D29A00A762090204D29A00A832087
:1000A00090204D29A00A6A2090208D29A00A762050
:1000B00090208D29A00A832090208D29A00A6A20F3
:1000C000A120532BA00A7620A120532BA00183202E
:1000D000A120532B2430A4003430A5002430A600E6
:1000E0003430A7003730B200AF0108002430A4003C
:1000F0003430A5000430A6001430A7003F30B20011
:100100000130AF0008003030A4003430A50030309A
:10011000A6003430A7003630B2000230AF0008002D
:100120001B30A8001830A9000F30AC00AE01080049
:100130003930A8002D30A9000C30AC000130AE00E1
:1001400008000F30A8001630A9000F30AC00AE0137
:1001500008002130A8003630A9000C30AC00013076
:10016000AE0008000230A10014212130A10BB428F8
:10017000A1002521F030A10BB928A100D020F0303A
:10018000A10BBE28A100D0200930A10BC328A100DB
:1001900025210230A10BC828000036210230B328E7
:1001A000243087000530A200A20BD4283430000090
:1001B000000087000430A200A20BDC2800003F30C2
:1001C00087000430A200A20BE3280000373087002C
:1001D0000430A200A20BEA2800003E308700043061
:1001E000A200A20BF1280000363087000430A200E4
:1001F000A20BF82800003D3087000430A200A20BBB
:10020000FF280000353087000430A200A20B062929
:1002100000003C3087000430A200A20B0D29000032
:100220003430870000000800043087000530A20049
:10023000A20B182914300000000087002A30A20009
:10024000A20B2029000000000800243087000530A0
:10025000A200A20B292934300000000087002A30B8
:10026000A200A20B31290000000008002430870002
:100270000530A200A20B3A293430000000008700AC
:10028000AB0AAA0FAB032B080F3A031D48292F2BEB
:100290002830A200A20B4A2908000130AD003F30EF
:1002A000B0000330A1002E220130A10B5329A10080
:1002B0003A230230A10B5829A1004B230D30A10B8A
:1002C0005D29A1002E222808A10B6229A10011227C
:1002D0005C30A10B6729A10070220130A10B6C29B1
:1002E000A100B7220630A10B7129A100D422013050
:1002F000A10B7629A100B7225C30A10B7B29A100BC
:1003000070222908A10B8029A10011220330A10B22
:1003100085290000F922023052290230AD00033055
:10032000A1003C220330A10B9129A10059220330E6
:10033000A10B9629A1003C220A30A10B9B29A10008
:100340002E222808A10BA029A1002E225C30A10B8F
:10035000A529A10070220130A10BAA29A100B72272
:100360000630A10BAF29A100D4220130A10BB42982
:10037000A100B7225C30A10BB929A1007022290885
:10038000A10BBE29A1002E220130A10BC329A1007F
:1003900010230330A10BC829A1003C220330A10B7C
:1003A000CD29A10059220330A10BD229A1003C2262
:1003B0000130A10BD729A10027230930A10BDC298B
:1003C000A1002E222808A10BE129A1002E225C30D9
:1003D000A10BE629A10070220130A10BEB29A1009D
:1003E000B7220630A10BF029A100D4220130A10BC5
:1003F000F529A100B7225C30A10BFA29A1007022D7
:100400002908A10BFF29A1002E220130A10B042AEB
:10041000A1002E220130A10B092A00003C2202304B
:100420009029240887000730A200A20B152A25086E
:1004300087000A30A200A20B1B2A0000000030082F
:1004400087004E30A200A20B232A00002508870057
:100450000330A200A20B2A2A00000800240887000B
:100460000730A200A20B322A250887005E30A200C6
:10047000A20B382A00000800240887000730A200D9
:10048000A20B402A250800008700000000002B3046
:10049000A200A20B492A240887000730A200A20B61
:1004A0004F2A2508000087002930A200A20B562AF7
:1004B0000800260887003030A200A20B5D2A27081A
:1004C00087000330A200A20B632A26088700303081
:1004D000A200A20B692A270887000000A3010800D8
:1004E000240887000730A200A20B742A2508870081
:1004F0000A30A200A20B7A2A000000003F308700D9
:100500000A30A200A20B822A0000373087000A308E
:10051000A200A20B892A00003E3087000A30A20008
:10052000A20B902A0000363087000A30A200A20BEE
:10053000972A00003D3087000A30A200A20B9E2AB5
:100540000000353087000A30A200A20BA52A000067
:100550003C3087000A30A200A20BAC2A000025081C
:1005600087000330A200A20BB32A00000800240871
:1005700087000730A200A20BBB2A250887000A309B
:10058000A200A20BC12A00000000320887004E30F2
:10059000A200A20BC92A0000250887000330A20090
:1005A000A20BD02A00000800240887000730A20010
:1005B000A20BD82A250887000A30A200A20BDE2A47
:1005C00000000000320887000B30A200A20BE62AD0
:1005D00000008A1500208A110D30A200A20BEE2A1D
:1005E0000000250887000330A200A20BF52A0000B6
:1005F0000800240887000730A200A20BFD2A250866
:100600008700AB0AAA0FAB032B082C06031D092B8E
:100610002F2B5B30A200A20B0B2B00000000080068
:10062000240887000730A200A20B142B250887009E
:10063000AB0AAA0FAB032B082C06031D202B2F2B74
:100640002630A200A20B222B000000000800250883
:1006500087003130A200A20B2B2B00000800AA015A
:10066000AB01A00183163F3087000630850083125E
:1006700063001028260887000730A200A20B3E2B3B
:10068000270887002608000087005D30A200A20B23
:10069000472B00000800260887006630A200A20B46
:1006A0004F2BA3010800AD013F30B0000130A10085
:1006B00097230330A10B582BA100B4230130A10BC9
:1006C0005D2BA100BC231430A10B622BA100582488
:1006D0002808A10B672BA10058245C30A10B6C2BC0
:1006E000A100F9230130A10B712BA100CA23063010
:1006F000A10B762BA10098240130A10B7B2BA1002C
:10070000CA235C30A10B802BA100F9232908A10B7F
:10071000852BA10058240730A10B8A2BA100582457
:100720000130A10B8F2B000075240130572B2408BA
:1007300087000630A200A20B9B2B00002508870033
:100740000A30A200A20BA22B00003F3087004230EB
:10075000A200A20BA92B260887001030A200A20B32
:10076000AF2B000000000800260887006630A200BA
:10077000A20BB82B00000800260887005430A20006
:10078000A20BC02B00003F3087001130A200A20B4B
:10079000C72B0800240887000630A200A20BCE2B2E
:1007A0000000250887000A30A200A20BD52B00000C
:1007B000300887000830A200A20BDC2B3208A3010E
:1007C000000087003B30A200A20BE42B00000000D9
:1007D000300887000830A200A20BEC2B00000000BC
:1007E000250887000330A200A20BF42B00000000B4
:1007F0000800240887000630A200A20BFD2B000091
:10080000250887000A30A200A20B042C0000300843
:1008100087000830A200A20B0B2C3F300000000024
:1008200087000730A200A20B132C00000000373015
:1008300087000730A200A20B1B2C000000003630FE
:1008400087000730A200A20B232C000000003E30DE
:1008500087000730A200A20B2B2C000000003D30C7
:1008600087000730A200A20B332C000000003530B7
:1008700087000730A200A20B3B2C000000003C3098
:1008800087000730A200A20B432C000000003008B4
:1008900087000830A200A20B4B2C000000002508A6
:1008A00087000330A200A20B532C000000000800B8
:1008B000240887000630A200A20B5C2C000025084B
:1008C00087000A30A200A20B632C000030088700CA
:1008D0004F30A200A20B6A2C250887000330A2002B
:1008E000A20B702C000000000800240887000630CE
:1008F000A200A20B792C0000250887000A30A20074
:10090000A20B802C0000300887004F30A200A20B01
:10091000872C25088700AB0AAA0FAB032B082C06EF
:10092000031D932C2F2B0000000000000000080086
:10093000240887000630A200A20B9C2C000025088A
:1009400087000A30A200A20BA32C00003008870009
:100950000830A200A20BAA2C320800000000870079
:10096000B12CB22CB32C8A1500208A110430A200BD
:10097000A20BB82C0000300887000830A200A20BA0
:10098000BF2C00000000250887000330A200A20B46
:08099000C72C00000000080064
:10100000702005204420A30A080008308A002F0819
:1010100003390D3E03188A0A82003328222811283A
:10102000112808308A0023080739193E03188A0A54
:101030008200032C1C2C352C4E2C672C802C032C6E
:101040001C2C352C08308A00230807392A3E031847
:101050008A0A8200992CB22CCB2CE42CFD2C162D64
:10106000992CB22CCB2C08308A00230807393B3E40
:1010700003188A0A82002F2D482D612D7A2D932D79
:10108000AC2D2F2D482D612D08308A002E080139F6
:101090004C3E03188A0A82004E285F2808308A00D6
:1010A00023080739563E03188A0A8200372B482B3B
:1010B000592B6A2B7B2B8C2B372B482B592B083029
:1010C0008A0023080739673E03188A0A82009D2B8D
:1010D000AE2BBF2BD02BE12BF22B9D2BAE2BBF2B9E
:1010E00008308A002D080339783E03188A0A8200E6
:1010F0007C288D289E289E2808308A0023080739DE
:10110000843E03188A0A8200AF28D328F7281B29B7
:101110003F296329AF28D328F72808308A002308FD
:101120000739953E03188A0A82008729AB29CF29FF
:10113000F329172A3B2A8729AB29CF2908308A00AF
:1011400023080739A63E03188A0A82005F2A832AE9
:10115000A72ACB2AEF2A132B5F2A832AA72A310832
:10116000870031088700310887003208870031087E
:10117000870032088700310887003208870031086D
:10118000870031088700310887003208870031085E
:101190008700310887003108870032088700870000
:1011A00032088700080032088700310887003208BB
:1011B000870032088700310887003208870031082D
:1011C000870032088700310887003208870031081D
:1011D000870032088700310887003208870031080D
:1011E000870032088700870032088700080032082D
:1011F00087003108870032088700320887003108ED
:1012000087003108870032088700320887003108DC
:1012100087003108870031088700320887003108CD
:10122000870032088700310887003208870087006E
:10123000320887000800320887003108870032082A
:10124000870032088700310887003208870031089C
:10125000870032088700320887003208870031088B
:10126000870032088700310887003208870031087C
:10127000870032088700870032088700080032089C
:10128000870031088700320887003208870031085C
:10129000870032088700310887003208870032084B
:1012A000870032088700310887003208870031083C
:1012B00087003208870031088700320887008700DE
:1012C000320887000800320887003108870032089A
:1012D000870032088700310887003208870031080C
:1012E00087003208870031088700310887003108FD
:1012F00087003208870031088700310887003108ED
:10130000870032088700870032088700080031080C
:1013100087003208870032088700310887003208CA
:1013200087003108870031088700310887003108BD
:1013300087003108870032088700310887003208AB
:10134000870032088700310887003208870087004D
:10135000320887000800310887003108870031080B
:10136000870031088700320887003108870032087B
:10137000870032088700320887003108870032086A
:10138000870031088700320887003108870031085C
:10139000870032088700870032088700080031087C
:1013A000870032088700320887003108870032083A
:1013B000870031088700310887003108870032082C
:1013C000870032088700310887003208870032081A
:1013D00087003208870031088700320887008700BD
:1013E0003208870008003108870032088700320879
:1013F00087003108870032088700320887003208EA
:1014000087003108870032088700310887003208DA
:1014100087003108870032088700320887003108CA
:1014200087003208870087003208870008003108EB
:1014300087003208870032088700310887003208A9
:101440008700320887003208870031088700320899
:10145000870031088700320887003108870032088A
:10146000870032088700310887003208870087002C
:1014700032088700080031088700320887003208E8
:10148000870031088700310887003108870031085C
:10149000870031088700320887003108870032084A
:1014A000870031088700320887003108870031083B
:1014B000870031088700870032088700080031085C
:1014C0008700320887003208870031088700320819
:1014D000870031088700310887003108870031080C
:1014E00087003108870032088700310887003208FA
:1014F000870031088700310887003108870087009E
:101500003208870008003108870031088700310859
:1015100087003108870032088700310887003208C9
:1015200087003208870032088700310887003208B8
:1015300087003108870032088700310887003208A9
:1015400087003108870087003208870008003108CB
:101550008700320887003208870031088700320888
:10156000870031088700310887003108870032087A
:101570008700320887003108870032088700320868
:10158000870032088700320887003108870087000B
:1015900032088700080031088700320887003208C7
:1015A0008700310887003208870032088700320838
:1015B0008700310887003208870031088700320829
:1015C0008700310887003208870032088700310819
:1015D000870032088700870032088700080031083A
:1015E00087003208870032088700310887003208F8
:1015F00087003208870032088700310887003208E8
:1016000087003108870032088700310887003208D8
:10161000870031088700320887003208870087007A
:101620003208870008003108870032088700320836
:1016300087003108870031088700310887003108AA
:101640008700310887003208870031088700320898
:101650008700310887003208870031088700310889
:1016600087003108870087003208870008003108AA
:101670008700310887003108870032088700310869
:10168000870031088700310887003208870008008A
:101690003108870032088700320887003208870047
:1016A0003108870032088700310887003208870038
:1016B00008003108870031088700310887003208A8
:1016C0008700310887003208870031088700320818
:1016D000870008003108870032088700310887003A
:1016E00032088700310887003208870031088700F8
:1016F0003208870008003108870032088700310867
:1017000087003208870031088700320887003108D7
:1017100087003208870008003108870031088700F9
:1017200031088700320887003108870031088700B8
:101730003108870032088700080031088700310827
:101740008700310887003208870031088700310898
:1017500087003108870032088700080031088700B9
:101760003208870032088700320887003108870076
:1017700032088700310887003208870008003108E6
:101780008700310887003108870032088700310858
:101790008700320887003108870032088700080078
:1017A0003208870032088700310887003208870036
:1017B0003108870032088700310887003208870027
:1017C0000800320887003208870031088700320895
:1017D0008700310887003208870031088700320807
:1017E000870008003108870031088700310887002A
:1017F00032088700310887003108870031088700E8
:101800003208870008003108870031088700310856
:1018100087003208870032088700320887003208C4
:1018200087003208870031088700310887003108B7
:1018300087003208870008003108870032088700D7
:101840003208870032088700320887003208870094
:101850003208870032088700310887003208870085
:1018600032088700320887000800310887003108F5
:101870008700310887003208870031088700310867
:101880008700310887003208870031088700320856
:101890008700320887003208870008003208870076
:1018A0003208870031088700320887003108870036
:1018B0003208870031088700320887003108870026
:1018C0003208870031088700320887000800320894
:1018D0008700320887003108870032088700310806
:1018E00087003208870031088700320887003108F6
:1018F0008700320887003108870032088700080017
:1019000031088700310887003108870032088700D6
:1019100031088700310887003108870032088700C6
:1019200031088700310887003108870032088700B6
:101930000800310887003208870032088700310824
:101940008700320887003108870032088700320894
:101950008700310887003208870032088700320884
:1019600087000800310887003208870032088700A6
:101970003108870032088700310887003208870065
:101980003208870031088700320887003208870054
:1019900032088700080031088700310887003108C5
:1019A0008700310887003208870031088700320835
:1019B0008700320887003108870032088700320824
:1019C0008700320887000800310887003208870046
:1019D0003208870031088700320887003108870005
:1019E00032088700320887003108870032088700F4
:1019F0003208870032088700080031088700320863
:101A000087003208870031088700320887003108D4
:101A100087003108870031088700310887003208C5
:101A200087003208870032088700080031088700E5
:101A300032088700320887003108870032088700A3
:101A40003208870031088700310887003208870094
:101A50003208870032088700320887000800310802
:101A60008700310887003108870032088700310875
:101A70008700310887003108870032088700320864
:101A80008700320887003208870032088700080084
:101A90003108870032088700320887003208870043
:101AA0003108870032088700320887003208870033
:101AB0003108870032088700310887003208870024
:101AC0000800310887003208870032088700320892
:101AD0008700310887003108870031088700320805
:101AE00087003108870032088700310887003208F4
:101AF0008700080031088700320887003208870015
:101B000032088700320887003208870031088700D2
:101B100032088700310887003108870031088700C4
:101B20003208870008003108870032088700320831
:101B300087003208870032088700320887003108A2
:101B40008700320887003208870031088700320892
:101B500087003208870008003108870031088700B5
:101B60003108870032088700310887003108870074
:101B70003108870032088700320887003108870063
:0A1B800032088700320887000800D1
:041B8A0000340034EF
:02400E00E2309E
:10420000443461346E346A346F34763469346334E0
:0A42100020343234303431343534B8
:00000001FF
