:020000040000FA
:020000001028C6
:08000800B3000308B4000A086C
:10001000B50035088A0034088300B30E330E09009A
:1000200083128601AA01AB0107309F008316850168
:10003000C030860080309F008E1821288E148312D5
:10004000A00183121630B1002008003A0319442899
:10005000013A03194628033A03194A28013A0319B9
:100060004E28073A03195228013A03195628033A31
:1000700003195A28013A03195E280F3A0319622816
:10008000013A031966281F28A00AB228A00A6A208C
:1000900090204D29A00A762090204D29A00A832087
:1000A00090204D29A00A6A2090208D29A00A762050
:1000B00090208D29A00A832090208D29A00A6A20F3
:1000C000A120532BA00A7620A120532BA00183202E
:1000D000A120532B1230A4001630A5001230A60028
:1000E0001630A7003730B200AF0108001230A4006C
:1000F0001630A5001030A6001430A7003F30B20023
:100100000130AF0008000630A4001630A50006300C
:10011000A6001630A7003630B2000230AF0008004B
:100120001B30A8001830A9000F30AC00AE01080049
:100130003930A8002D30A9000C30AC000130AE00E1
:1001400008000F30A8001630A9000F30AC00AE0137
:1001500008002130A8003630A9000C30AC00013076
:10016000AE0008000230A10014212130A10BB428F8
:10017000A1002521F030A10BB928A100D020F0303A
:10018000A10BBE28A100D0200930A10BC328A100DB
:1001900025210230A10BC828000036210230B328E7
:1001A000123086000530A200A20BD42816300000C1
:1001B000000086000430A200A20BDC2800003F30C3
:1001C00086000430A200A20BE3280000373086002E
:1001D0000430A200A20BEA2800003E308600043062
:1001E000A200A20BF1280000363086000430A200E5
:1001F000A20BF82800001F3086000430A200A20BDA
:10020000FF280000173086000430A200A20B062948
:1002100000001E3086000430A200A20B0D29000051
:100220001630860000000800103086000530A2005D
:10023000A20B182914300000000086002A30A2000A
:10024000A20B2029000000000800123086000530B3
:10025000A200A20B292916300000000086002A30D7
:10026000A200A20B31290000000008001230860015
:100270000530A200A20B3A291630000000008600CB
:10028000AB0AAA0FAB032B080F3A031D48292F2BEB
:100290002830A200A20B4A2908000130AD003F30EF
:1002A000B0000330A1002E220130A10B5329A10080
:1002B0003A230230A10B5829A1004B230D30A10B8A
:1002C0005D29A1002E222808A10B6229A10011227C
:1002D0005C30A10B6729A10070220130A10B6C29B1
:1002E000A100B7220630A10B7129A100D422013050
:1002F000A10B7629A100B7225C30A10B7B29A100BC
:1003000070222908A10B8029A10011220330A10B22
:1003100085290000F922023052290230AD00033055
:10032000A1003C220330A10B9129A10059220330E6
:10033000A10B9629A1003C220A30A10B9B29A10008
:100340002E222808A10BA029A1002E225C30A10B8F
:10035000A529A10070220130A10BAA29A100B72272
:100360000630A10BAF29A100D4220130A10BB42982
:10037000A100B7225C30A10BB929A1007022290885
:10038000A10BBE29A1002E220130A10BC329A1007F
:1003900010230330A10BC829A1003C220330A10B7C
:1003A000CD29A10059220330A10BD229A1003C2262
:1003B0000130A10BD729A10027230930A10BDC298B
:1003C000A1002E222808A10BE129A1002E225C30D9
:1003D000A10BE629A10070220130A10BEB29A1009D
:1003E000B7220630A10BF029A100D4220130A10BC5
:1003F000F529A100B7225C30A10BFA29A1007022D7
:100400002908A10BFF29A1002E220130A10B042AEB
:10041000A1002E220130A10B092A00003C2202304B
:100420009029240886000730A200A20B152A25086F
:1004300086000A30A200A20B1B2A00000000300830
:1004400086004E30A200A20B232A00002508860059
:100450000330A200A20B2A2A00000800240886000C
:100460000730A200A20B322A250886005E30A200C7
:10047000A20B382A00000800240886000730A200DA
:10048000A20B402A250800008600000000002B3047
:10049000A200A20B492A240886000730A200A20B62
:1004A0004F2A2508000086002930A200A20B562AF8
:1004B0000800260886003030A200A20B5D2A27081B
:1004C00086000330A200A20B632A26088600303083
:1004D000A200A20B692A270886000000A3010800D9
:1004E000240886000730A200A20B742A2508860083
:1004F0000A30A200A20B7A2A000000003F308600DA
:100500000A30A200A20B822A0000373086000A308F
:10051000A200A20B892A00003E3086000A30A20009
:10052000A20B902A0000363086000A30A200A20BEF
:10053000972A00001F3086000A30A200A20B9E2AD4
:100540000000173086000A30A200A20BA52A000086
:100550001E3086000A30A200A20BAC2A000025083B
:1005600086000330A200A20BB32A00000800240872
:1005700086000730A200A20BBB2A250886000A309D
:10058000A200A20BC12A00000000320886004E30F3
:10059000A200A20BC92A0000250886000330A20091
:1005A000A20BD02A00000800240886000730A20011
:1005B000A20BD82A250886000A30A200A20BDE2A48
:1005C00000000000320886000B30A200A20BE62AD1
:1005D00000008A1500208A110D30A200A20BEE2A1D
:1005E0000000250886000330A200A20BF52A0000B7
:1005F0000800240886000730A200A20BFD2A250867
:100600008600AB0AAA0FAB032B082C06031D092B8F
:100610002F2B5B30A200A20B0B2B00000000080068
:10062000240886000730A200A20B142B25088600A0
:10063000AB0AAA0FAB032B082C06031D202B2F2B74
:100640002630A200A20B222B000000000800250883
:1006500086003130A200A20B2B2B00000800AA015B
:10066000AB01A00183163F30860003308500831262
:1006700063001028260886000730A200A20B3E2B3C
:10068000270886002608000086005D30A200A20B25
:10069000472B00000800260886006630A200A20B47
:1006A0004F2BA3010800AD013F30B0000130A10085
:1006B00097230330A10B582BA100B4230130A10BC9
:1006C0005D2BA100BC231430A10B622BA100582488
:1006D0002808A10B672BA10058245C30A10B6C2BC0
:1006E000A100F9230130A10B712BA100CA23063010
:1006F000A10B762BA10098240130A10B7B2BA1002C
:10070000CA235C30A10B802BA100F9232908A10B7F
:10071000852BA10058240730A10B8A2BA100582457
:100720000130A10B8F2B000075240130572B2408BA
:1007300086000630A200A20B9B2B00002508860035
:100740000A30A200A20BA22B00003F3086004230EC
:10075000A200A20BA92B260886001030A200A20B33
:10076000AF2B000000000800260886006630A200BB
:10077000A20BB82B00000800260886005430A20007
:10078000A20BC02B00003F3086001130A200A20B4C
:10079000C72B0800240886000630A200A20BCE2B2F
:1007A0000000250886000A30A200A20BD52B00000D
:1007B000300886000830A200A20BDC2B3208A3010F
:1007C000000086003B30A200A20BE42B00000000DA
:1007D000300886000830A200A20BEC2B00000000BD
:1007E000250886000330A200A20BF42B00000000B5
:1007F0000800240886000630A200A20BFD2B000092
:10080000250886000A30A200A20B042C0000300844
:1008100086000830A200A20B0B2C3F300000000025
:1008200086000730A200A20B132C00000000373016
:1008300086000730A200A20B1B2C000000003630FF
:1008400086000730A200A20B232C000000003E30DF
:1008500086000730A200A20B2B2C000000001F30E6
:1008600086000730A200A20B332C000000001730D6
:1008700086000730A200A20B3B2C000000001E30B7
:1008800086000730A200A20B432C000000003008B5
:1008900086000830A200A20B4B2C000000002508A7
:1008A00086000330A200A20B532C000000000800B9
:1008B000240886000630A200A20B5C2C000025084C
:1008C00086000A30A200A20B632C000030088600CC
:1008D0004F30A200A20B6A2C250886000330A2002C
:1008E000A20B702C000000000800240886000630CF
:1008F000A200A20B792C0000250886000A30A20075
:10090000A20B802C0000300886004F30A200A20B02
:10091000872C25088600AB0AAA0FAB032B082C06F0
:10092000031D932C2F2B0000000000000000080086
:10093000240886000630A200A20B9C2C000025088B
:1009400086000A30A200A20BA32C0000300886000B
:100950000830A200A20BAA2C32080000000086007A
:10096000B12CB22CB32C8A1500208A110430A200BD
:10097000A20BB82C0000300886000830A200A20BA1
:10098000BF2C00000000250886000330A200A20B47
:08099000C72C00000000080064
:10100000702005204420A30A080008308A002F0819
:1010100003390D3E03188A0A82003328222811283A
:10102000112808308A0023080739193E03188A0A54
:101030008200032C1C2C352C4E2C672C802C032C6E
:101040001C2C352C08308A00230807392A3E031847
:101050008A0A8200992CB22CCB2CE42CFD2C162D64
:10106000992CB22CCB2C08308A00230807393B3E40
:1010700003188A0A82002F2D482D612D7A2D932D79
:10108000AC2D2F2D482D612D08308A002E080139F6
:101090004C3E03188A0A82004E285F2808308A00D6
:1010A00023080739563E03188A0A8200372B482B3B
:1010B000592B6A2B7B2B8C2B372B482B592B083029
:1010C0008A0023080739673E03188A0A82009D2B8D
:1010D000AE2BBF2BD02BE12BF22B9D2BAE2BBF2B9E
:1010E00008308A002D080339783E03188A0A8200E6
:1010F0007C288D289E289E2808308A0023080739DE
:10110000843E03188A0A8200AF28D328F7281B29B7
:101110003F296329AF28D328F72808308A002308FD
:101120000739953E03188A0A82008729AB29CF29FF
:10113000F329172A3B2A8729AB29CF2908308A00AF
:1011400023080739A63E03188A0A82005F2A832AE9
:10115000A72ACB2AEF2A132B5F2A832AA72A310832
:101160008600310886003108860032088600310882
:101170008600320886003108860032088600310871
:101180008600310886003108860032088600310862
:101190008600310886003108860032088600860005
:1011A00032088600080032088600310886003208BE
:1011B0008600320886003108860032088600310831
:1011C0008600320886003108860032088600310821
:1011D0008600320886003108860032088600310811
:1011E0008600320886008600320886000800320831
:1011F00086003108860032088600320886003108F1
:1012000086003108860032088600320886003108E0
:1012100086003108860031088600320886003108D1
:101220008600320886003108860032088600860073
:10123000320886000800320886003108860032082D
:1012400086003208860031088600320886003108A0
:10125000860032088600320886003208860031088F
:101260008600320886003108860032088600310880
:1012700086003208860086003208860008003208A0
:101280008600310886003208860032088600310860
:10129000860032088600310886003208860032084F
:1012A0008600320886003108860032088600310840
:1012B00086003208860031088600320886008600E3
:1012C000320886000800320886003108860032089D
:1012D0008600320886003108860032088600310810
:1012E0008600320886003108860031088600310801
:1012F00086003208860031088600310886003108F1
:101300008600320886008600320886000800310810
:1013100086003208860032088600310886003208CE
:1013200086003108860031088600310886003108C1
:1013300086003108860032088600310886003208AF
:101340008600320886003108860032088600860052
:10135000320886000800310886003108860031080E
:10136000860031088600320886003108860032087F
:10137000860032088600320886003108860032086E
:101380008600310886003208860031088600310860
:101390008600320886008600320886000800310880
:1013A000860032088600320886003108860032083E
:1013B0008600310886003108860031088600320830
:1013C000860032088600310886003208860032081E
:1013D00086003208860031088600320886008600C2
:1013E000320886000800310886003208860032087C
:1013F00086003108860032088600320886003208EE
:1014000086003108860032088600310886003208DE
:1014100086003108860032088600320886003108CE
:1014200086003208860086003208860008003108EF
:1014300086003208860032088600310886003208AD
:10144000860032088600320886003108860032089D
:10145000860031088600320886003108860032088E
:101460008600320886003108860032088600860031
:1014700032088600080031088600320886003208EB
:101480008600310886003108860031088600310860
:10149000860031088600320886003108860032084E
:1014A000860031088600320886003108860031083F
:1014B0008600310886008600320886000800310860
:1014C000860032088600320886003108860032081D
:1014D0008600310886003108860031088600310810
:1014E00086003108860032088600310886003208FE
:1014F00086003108860031088600310886008600A3
:10150000320886000800310886003108860031085C
:1015100086003108860032088600310886003208CD
:1015200086003208860032088600310886003208BC
:1015300086003108860032088600310886003208AD
:1015400086003108860086003208860008003108CF
:10155000860032088600320886003108860032088C
:10156000860031088600310886003108860032087E
:10157000860032088600310886003208860032086C
:101580008600320886003208860031088600860010
:1015900032088600080031088600320886003208CA
:1015A000860031088600320886003208860032083C
:1015B000860031088600320886003108860032082D
:1015C000860031088600320886003208860031081D
:1015D000860032088600860032088600080031083E
:1015E00086003208860032088600310886003208FC
:1015F00086003208860032088600310886003208EC
:1016000086003108860032088600310886003208DC
:10161000860031088600320886003208860086007F
:101620003208860008003108860032088600320839
:1016300086003108860031088600310886003108AE
:10164000860031088600320886003108860032089C
:10165000860031088600320886003108860031088D
:1016600086003108860086003208860008003108AE
:10167000860031088600310886003208860031086D
:10168000860031088600310886003208860008008E
:10169000310886003208860032088600320886004B
:1016A000310886003208860031088600320886003C
:1016B00008003108860031088600310886003208AB
:1016C000860031088600320886003108860032081C
:1016D000860008003108860032088600310886003E
:1016E00032088600310886003208860031088600FC
:1016F000320886000800310886003208860031086A
:1017000086003208860031088600320886003108DB
:1017100086003208860008003108860031088600FD
:1017200031088600320886003108860031088600BC
:10173000310886003208860008003108860031082A
:10174000860031088600320886003108860031089C
:1017500086003108860032088600080031088600BD
:10176000320886003208860032088600310886007A
:1017700032088600310886003208860008003108E9
:10178000860031088600310886003208860031085C
:10179000860032088600310886003208860008007C
:1017A000320886003208860031088600320886003A
:1017B000310886003208860031088600320886002B
:1017C0000800320886003208860031088600320898
:1017D000860031088600320886003108860032080B
:1017E000860008003108860031088600310886002E
:1017F00032088600310886003108860031088600EC
:101800003208860008003108860031088600310859
:1018100086003208860032088600320886003208C8
:1018200086003208860031088600310886003108BB
:1018300086003208860008003108860032088600DB
:101840003208860032088600320886003208860098
:101850003208860032088600310886003208860089
:1018600032088600320886000800310886003108F8
:10187000860031088600320886003108860031086B
:10188000860031088600320886003108860032085A
:10189000860032088600320886000800320886007A
:1018A000320886003108860032088600310886003A
:1018B000320886003108860032088600310886002A
:1018C0003208860031088600320886000800320897
:1018D000860032088600310886003208860031080A
:1018E00086003208860031088600320886003108FA
:1018F000860032088600310886003208860008001B
:1019000031088600310886003108860032088600DA
:1019100031088600310886003108860032088600CA
:1019200031088600310886003108860032088600BA
:101930000800310886003208860032088600310827
:101940008600320886003108860032088600320898
:101950008600310886003208860032088600320888
:1019600086000800310886003208860032088600AA
:101970003108860032088600310886003208860069
:101980003208860031088600320886003208860058
:1019900032088600080031088600310886003108C8
:1019A0008600310886003208860031088600320839
:1019B0008600320886003108860032088600320828
:1019C000860032088600080031088600320886004A
:1019D0003208860031088600320886003108860009
:1019E00032088600320886003108860032088600F8
:1019F0003208860032088600080031088600320866
:101A000086003208860031088600320886003108D8
:101A100086003108860031088600310886003208C9
:101A200086003208860032088600080031088600E9
:101A300032088600320886003108860032088600A7
:101A40003208860031088600310886003208860098
:101A50003208860032088600320886000800310805
:101A60008600310886003108860032088600310879
:101A70008600310886003108860032088600320868
:101A80008600320886003208860032088600080088
:101A90003108860032088600320886003208860047
:101AA0003108860032088600320886003208860037
:101AB0003108860032088600310886003208860028
:101AC0000800310886003208860032088600320895
:101AD0008600310886003108860031088600320809
:101AE00086003108860032088600310886003208F8
:101AF0008600080031088600320886003208860019
:101B000032088600320886003208860031088600D6
:101B100032088600310886003108860031088600C8
:101B20003208860008003108860032088600320834
:101B300086003208860032088600320886003108A6
:101B40008600320886003208860031088600320896
:101B500086003208860008003108860031088600B9
:101B60003108860032088600310886003108860078
:101B70003108860032088600320886003108860067
:0A1B800032088600320886000800D3
:041B8A0000340034EF
:02400E00223F4F
:10420000443461346E346A346F34763469346334E0
:0A42100020343234303431343534B8
:00000001FF
